{
  "_format": "hh-sol-artifact-1",
  "contractName": "KeyContract",
  "sourceName": "contracts/KeyContract.sol",
  "abi": [
    {
      "inputs": [
        {
          "internalType": "address",
          "name": "_tokenAddress",
          "type": "address"
        }
      ],
      "stateMutability": "nonpayable",
      "type": "constructor"
    },
    {
      "inputs": [
        {
          "internalType": "string",
          "name": "",
          "type": "string"
        }
      ],
      "name": "chunkKeys",
      "outputs": [
        {
          "internalType": "string",
          "name": "",
          "type": "string"
        }
      ],
      "stateMutability": "view",
      "type": "function"
    },
    {
      "inputs": [
        {
          "internalType": "string",
          "name": "",
          "type": "string"
        }
      ],
      "name": "chunkPrices",
      "outputs": [
        {
          "internalType": "uint16",
          "name": "",
          "type": "uint16"
        }
      ],
      "stateMutability": "view",
      "type": "function"
    },
    {
      "inputs": [
        {
          "internalType": "uint256",
          "name": "amount",
          "type": "uint256"
        }
      ],
      "name": "depositTokens",
      "outputs": [],
      "stateMutability": "nonpayable",
      "type": "function"
    },
    {
      "inputs": [],
      "name": "getBalance",
      "outputs": [
        {
          "internalType": "uint256",
          "name": "",
          "type": "uint256"
        }
      ],
      "stateMutability": "view",
      "type": "function"
    },
    {
      "inputs": [
        {
          "internalType": "address",
          "name": "keyServerPublicKey",
          "type": "address"
        }
      ],
      "name": "getChunkKeyRequest",
      "outputs": [
        {
          "internalType": "string[]",
          "name": "",
          "type": "string[]"
        }
      ],
      "stateMutability": "view",
      "type": "function"
    },
    {
      "inputs": [
        {
          "internalType": "string[]",
          "name": "chunkIds",
          "type": "string[]"
        }
      ],
      "name": "getChunkKeys",
      "outputs": [
        {
          "internalType": "string[]",
          "name": "",
          "type": "string[]"
        }
      ],
      "stateMutability": "view",
      "type": "function"
    },
    {
      "inputs": [
        {
          "internalType": "address",
          "name": "keyOwner",
          "type": "address"
        }
      ],
      "name": "getKeyOwnerReputation",
      "outputs": [
        {
          "internalType": "uint16",
          "name": "",
          "type": "uint16"
        }
      ],
      "stateMutability": "view",
      "type": "function"
    },
    {
      "inputs": [
        {
          "internalType": "address",
          "name": "",
          "type": "address"
        }
      ],
      "name": "keyOwnerOpenRatings",
      "outputs": [
        {
          "internalType": "uint16",
          "name": "",
          "type": "uint16"
        }
      ],
      "stateMutability": "view",
      "type": "function"
    },
    {
      "inputs": [
        {
          "internalType": "address",
          "name": "",
          "type": "address"
        }
      ],
      "name": "keyOwnerReputation",
      "outputs": [
        {
          "internalType": "uint16",
          "name": "",
          "type": "uint16"
        }
      ],
      "stateMutability": "view",
      "type": "function"
    },
    {
      "inputs": [],
      "name": "owner",
      "outputs": [
        {
          "internalType": "address",
          "name": "",
          "type": "address"
        }
      ],
      "stateMutability": "view",
      "type": "function"
    },
    {
      "inputs": [
        {
          "internalType": "string[]",
          "name": "chunkIds",
          "type": "string[]"
        },
        {
          "internalType": "string[]",
          "name": "keys",
          "type": "string[]"
        },
        {
          "internalType": "address[]",
          "name": "keyOwners",
          "type": "address[]"
        }
      ],
      "name": "publishChunkKeys",
      "outputs": [],
      "stateMutability": "nonpayable",
      "type": "function"
    },
    {
      "inputs": [
        {
          "internalType": "address[]",
          "name": "keyOwners",
          "type": "address[]"
        },
        {
          "internalType": "bool[]",
          "name": "ratings",
          "type": "bool[]"
        }
      ],
      "name": "rateKeyOwners",
      "outputs": [],
      "stateMutability": "nonpayable",
      "type": "function"
    },
    {
      "inputs": [
        {
          "internalType": "string[]",
          "name": "chunkIds",
          "type": "string[]"
        },
        {
          "internalType": "uint16[]",
          "name": "prices",
          "type": "uint16[]"
        },
        {
          "internalType": "address",
          "name": "keyServerPublicKey",
          "type": "address"
        }
      ],
      "name": "requestChunkKeys",
      "outputs": [],
      "stateMutability": "nonpayable",
      "type": "function"
    },
    {
      "inputs": [
        {
          "internalType": "address",
          "name": "",
          "type": "address"
        },
        {
          "internalType": "uint256",
          "name": "",
          "type": "uint256"
        }
      ],
      "name": "requestedChunkKeysByKeyServer",
      "outputs": [
        {
          "internalType": "string",
          "name": "",
          "type": "string"
        }
      ],
      "stateMutability": "view",
      "type": "function"
    },
    {
      "inputs": [],
      "name": "tokenAddress",
      "outputs": [
        {
          "internalType": "address",
          "name": "",
          "type": "address"
        }
      ],
      "stateMutability": "view",
      "type": "function"
    },
    {
      "inputs": [
        {
          "internalType": "uint256",
          "name": "amount",
          "type": "uint256"
        }
      ],
      "name": "withdrawTokens",
      "outputs": [],
      "stateMutability": "nonpayable",
      "type": "function"
    }
  ],
  "bytecode": "0x608060405234801561000f575f80fd5b50604051611a88380380611a8883398101604081905261002e91610060565b5f8054336001600160a01b031991821617909155600180549091166001600160a01b039290921691909117905561008d565b5f60208284031215610070575f80fd5b81516001600160a01b0381168114610086575f80fd5b9392505050565b6119ee8061009a5f395ff3fe608060405234801561000f575f80fd5b50600436106100fb575f3560e01c80638da5cb5b11610093578063de3b110511610063578063de3b110514610279578063e2f6ab441461028c578063e44e99081461029f578063ede88c97146102bf575f80fd5b80638da5cb5b146102165780639d76ea5814610240578063ba56023614610253578063dd49756e14610266575f80fd5b806356a4b844116100ce57806356a4b8441461019157806373887ddb146101a457806375f5d92a146101d35780638c3ee5e7146101f6575f80fd5b806303222378146100ff57806312065fe01461013a578063315a095d14610150578063519a5be814610165575b5f80fd5b61012261010d3660046111c7565b60066020525f908152604090205461ffff1681565b60405161ffff90911681526020015b60405180910390f35b6101426102d2565b604051908152602001610131565b61016361015e3660046111e7565b610341565b005b6101226101733660046111c7565b6001600160a01b03165f9081526006602052604090205461ffff1690565b61016361019f36600461135e565b610424565b6101226101b2366004611432565b805160208183018101805160038252928201919093012091525461ffff1681565b6101226101e13660046111c7565b60056020525f908152604090205461ffff1681565b6102096102043660046111c7565b61053f565b60405161013191906114b9565b5f54610228906001600160a01b031681565b6040516001600160a01b039091168152602001610131565b600154610228906001600160a01b031681565b610209610261366004611519565b610629565b6101636102743660046111e7565b61077c565b6101636102873660046115aa565b610820565b61016361029a366004611639565b610da5565b6102b26102ad366004611432565b611003565b60405161013191906116f7565b6102b26102cd366004611709565b6110a6565b6001546040516370a0823160e01b81523060048201525f916001600160a01b0316906370a0823190602401602060405180830381865afa158015610318573d5f803e3d5ffd5b505050506040513d601f19601f8201168201806040525081019061033c9190611731565b905090565b5f546001600160a01b031633146103ad5760405162461bcd60e51b815260206004820152602560248201527f4f6e6c7920746865206f776e65722063616e2063616c6c20746869732066756e60448201526431ba34b7b760d91b60648201526084015b60405180910390fd5b60015460405163a9059cbb60e01b8152336004820152602481018390526001600160a01b039091169063a9059cbb906044015b6020604051808303815f875af11580156103fc573d5f803e3d5ffd5b505050506040513d601f19601f820116820180604052508101906104209190611748565b5050565b5f546001600160a01b0316331461048b5760405162461bcd60e51b815260206004820152602560248201527f4f6e6c7920746865206f776e65722063616e2063616c6c20746869732066756e60448201526431ba34b7b760d91b60648201526084016103a4565b6001600160a01b0381165f90815260026020908152604090912084516104b3928601906110d8565b505f5b8351811015610539578281815181106104d1576104d1611763565b602002602001015160038583815181106104ed576104ed611763565b60200260200101516040516105029190611777565b908152604051908190036020019020805461ffff9290921661ffff1990921691909117905580610531816117a6565b9150506104b6565b50505050565b6001600160a01b0381165f908152600260209081526040808320805482518185028101850190935280835260609492939192909184015b8282101561061e578382905f5260205f20018054610593906117be565b80601f01602080910402602001604051908101604052809291908181526020018280546105bf906117be565b801561060a5780601f106105e15761010080835404028352916020019161060a565b820191905f5260205f20905b8154815290600101906020018083116105ed57829003601f168201915b505050505081526020019060010190610576565b505050509050919050565b60605f825167ffffffffffffffff811115610646576106466111fe565b60405190808252806020026020018201604052801561067957816020015b60608152602001906001900390816106645790505b5090505f5b835181101561077557600484828151811061069b5761069b611763565b60200260200101516040516106b09190611777565b908152602001604051809103902080546106c9906117be565b80601f01602080910402602001604051908101604052809291908181526020018280546106f5906117be565b80156107405780601f1061071757610100808354040283529160200191610740565b820191905f5260205f20905b81548152906001019060200180831161072357829003601f168201915b505050505082828151811061075757610757611763565b6020026020010181905250808061076d906117a6565b91505061067e565b5092915050565b5f546001600160a01b031633146107e35760405162461bcd60e51b815260206004820152602560248201527f4f6e6c7920746865206f776e65722063616e2063616c6c20746869732066756e60448201526431ba34b7b760d91b60648201526084016103a4565b6001546040516323b872dd60e01b8152336004820152306024820152604481018390526001600160a01b03909116906323b872dd906064016103e0565b81518351148015610832575080518351145b61087e5760405162461bcd60e51b815260206004820181905260248201527f417272617973206d7573742068617665207468652073616d65206c656e67746860448201526064016103a4565b5f5b835181101561099c5783818151811061089b5761089b611763565b60200260200101516040516020016108b39190611777565b60408051601f198184030181529181528151602092830120335f908152600290935291208054839081106108e9576108e9611763565b905f5260205f200160405160200161090191906117f6565b604051602081830303815290604052805190602001201461098a5760405162461bcd60e51b815260206004820152603560248201527f4368756e6b20696473206d757374206265207468652073616d6520617320746860448201527f6520726571756573746564206368756e6b20696473000000000000000000000060648201526084016103a4565b80610994816117a6565b915050610880565b505f815167ffffffffffffffff8111156109b8576109b86111fe565b6040519080825280602002602001820160405280156109e1578160200160208202803683370190505b5090505f825167ffffffffffffffff8111156109ff576109ff6111fe565b604051908082528060200260200182016040528015610a28578160200160208202803683370190505b5090505f805b8651811015610c43575f6003888381518110610a4c57610a4c611763565b6020026020010151604051610a619190611777565b90815260405190819003602001902054865161ffff90911691505f90879084908110610a8f57610a8f611763565b60200260200101519050878381518110610aab57610aab611763565b602002602001015160048a8581518110610ac757610ac7611763565b6020026020010151604051610adc9190611777565b90815260200160405180910390209081610af691906118ad565b506001600160a01b0381165f908152600560205260408120805460019290610b2390849061ffff16611969565b92506101000a81548161ffff021916908361ffff1602179055505f821115610c2e575f805b85811015610bc757826001600160a01b0316888281518110610b6c57610b6c611763565b60200260200101516001600160a01b031603610bb55783878281518110610b9557610b95611763565b60200260200101818151610ba99190611984565b90525060019150610bc7565b80610bbf816117a6565b915050610b48565b5080610c2c5781878681518110610be057610be0611763565b60200260200101906001600160a01b031690816001600160a01b03168152505082868681518110610c1357610c13611763565b602090810291909101015284610c28816117a6565b9550505b505b50508080610c3b906117a6565b915050610a2e565b505f5b81811015610d85575f838281518110610c6157610c61611763565b6020026020010151118015610cb057505f60065f868481518110610c8757610c87611763565b6020908102919091018101516001600160a01b031682528101919091526040015f205461ffff16115b15610d735760015484516001600160a01b039091169063a9059cbb90869084908110610cde57610cde611763565b6020026020010151858481518110610cf857610cf8611763565b60200260200101516040518363ffffffff1660e01b8152600401610d319291906001600160a01b03929092168252602082015260400190565b6020604051808303815f875af1158015610d4d573d5f803e3d5ffd5b505050506040513d601f19601f82011682018060405250810190610d719190611748565b505b80610d7d816117a6565b915050610c46565b50335f908152600260205260408120610d9d9161112c565b505050505050565b8051825114610df65760405162461bcd60e51b815260206004820181905260248201527f417272617973206d7573742068617665207468652073616d65206c656e67746860448201526064016103a4565b5f5b8251811015610ffe575f60055f858481518110610e1757610e17611763565b6020908102919091018101516001600160a01b031682528101919091526040015f205461ffff1611610e8b5760405162461bcd60e51b815260206004820152601d60248201527f4b6579206f776e657220686173206e6f206f70656e20726174696e677300000060448201526064016103a4565b600160055f858481518110610ea257610ea2611763565b60200260200101516001600160a01b03166001600160a01b031681526020019081526020015f205f8282829054906101000a900461ffff16610ee4919061199d565b92506101000a81548161ffff021916908361ffff160217905550818181518110610f1057610f10611763565b602002602001015115610f9557600160065f858481518110610f3457610f34611763565b60200260200101516001600160a01b03166001600160a01b031681526020019081526020015f205f8282829054906101000a900461ffff16610f769190611969565b92506101000a81548161ffff021916908361ffff160217905550610fec565b5f60065f858481518110610fab57610fab611763565b60200260200101516001600160a01b03166001600160a01b031681526020019081526020015f205f6101000a81548161ffff021916908361ffff1602179055505b80610ff6816117a6565b915050610df8565b505050565b805160208183018101805160048252928201919093012091528054611027906117be565b80601f0160208091040260200160405190810160405280929190818152602001828054611053906117be565b801561109e5780601f106110755761010080835404028352916020019161109e565b820191905f5260205f20905b81548152906001019060200180831161108157829003601f168201915b505050505081565b6002602052815f5260405f2081815481106110bf575f80fd5b905f5260205f20015f91509150508054611027906117be565b828054828255905f5260205f2090810192821561111c579160200282015b8281111561111c578251829061110c90826118ad565b50916020019190600101906110f6565b5061112892915061114a565b5090565b5080545f8255905f5260205f2090810190611147919061114a565b50565b80821115611128575f61115d8282611166565b5060010161114a565b508054611172906117be565b5f825580601f10611181575050565b601f0160209004905f5260205f209081019061114791905b80821115611128575f8155600101611199565b80356001600160a01b03811681146111c2575f80fd5b919050565b5f602082840312156111d7575f80fd5b6111e0826111ac565b9392505050565b5f602082840312156111f7575f80fd5b5035919050565b634e487b7160e01b5f52604160045260245ffd5b604051601f8201601f1916810167ffffffffffffffff8111828210171561123b5761123b6111fe565b604052919050565b5f67ffffffffffffffff82111561125c5761125c6111fe565b5060051b60200190565b5f82601f830112611275575f80fd5b813567ffffffffffffffff81111561128f5761128f6111fe565b6112a2601f8201601f1916602001611212565b8181528460208386010111156112b6575f80fd5b816020850160208301375f918101602001919091529392505050565b5f82601f8301126112e1575f80fd5b813560206112f66112f183611243565b611212565b82815260059290921b84018101918181019086841115611314575f80fd5b8286015b8481101561135357803567ffffffffffffffff811115611337575f8081fd5b6113458986838b0101611266565b845250918301918301611318565b509695505050505050565b5f805f60608486031215611370575f80fd5b833567ffffffffffffffff80821115611387575f80fd5b611393878388016112d2565b94506020915081860135818111156113a9575f80fd5b86019050601f810187136113bb575f80fd5b80356113c96112f182611243565b81815260059190911b820183019083810190898311156113e7575f80fd5b928401925b8284101561141557833561ffff81168114611406575f8081fd5b825292840192908401906113ec565b8096505050505050611429604085016111ac565b90509250925092565b5f60208284031215611442575f80fd5b813567ffffffffffffffff811115611458575f80fd5b61146484828501611266565b949350505050565b5f5b8381101561148657818101518382015260200161146e565b50505f910152565b5f81518084526114a581602086016020860161146c565b601f01601f19169290920160200192915050565b5f602080830181845280855180835260408601915060408160051b87010192508387015f5b8281101561150c57603f198886030184526114fa85835161148e565b945092850192908501906001016114de565b5092979650505050505050565b5f60208284031215611529575f80fd5b813567ffffffffffffffff81111561153f575f80fd5b611464848285016112d2565b5f82601f83011261155a575f80fd5b8135602061156a6112f183611243565b82815260059290921b84018101918181019086841115611588575f80fd5b8286015b848110156113535761159d816111ac565b835291830191830161158c565b5f805f606084860312156115bc575f80fd5b833567ffffffffffffffff808211156115d3575f80fd5b6115df878388016112d2565b945060208601359150808211156115f4575f80fd5b611600878388016112d2565b93506040860135915080821115611615575f80fd5b506116228682870161154b565b9150509250925092565b8015158114611147575f80fd5b5f806040838503121561164a575f80fd5b823567ffffffffffffffff80821115611661575f80fd5b61166d8683870161154b565b9350602091508185013581811115611683575f80fd5b85019050601f81018613611695575f80fd5b80356116a36112f182611243565b81815260059190911b820183019083810190888311156116c1575f80fd5b928401925b828410156116e85783356116d98161162c565b825292840192908401906116c6565b80955050505050509250929050565b602081525f6111e0602083018461148e565b5f806040838503121561171a575f80fd5b611723836111ac565b946020939093013593505050565b5f60208284031215611741575f80fd5b5051919050565b5f60208284031215611758575f80fd5b81516111e08161162c565b634e487b7160e01b5f52603260045260245ffd5b5f825161178881846020870161146c565b9190910192915050565b634e487b7160e01b5f52601160045260245ffd5b5f600182016117b7576117b7611792565b5060010190565b600181811c908216806117d257607f821691505b6020821081036117f057634e487b7160e01b5f52602260045260245ffd5b50919050565b5f808354611803816117be565b6001828116801561181b57600181146118305761185c565b60ff198416875282151583028701945061185c565b875f526020805f205f5b858110156118535781548a82015290840190820161183a565b50505082870194505b50929695505050505050565b601f821115610ffe575f81815260208120601f850160051c8101602086101561188e5750805b601f850160051c820191505b81811015610d9d5782815560010161189a565b815167ffffffffffffffff8111156118c7576118c76111fe565b6118db816118d584546117be565b84611868565b602080601f83116001811461190e575f84156118f75750858301515b5f19600386901b1c1916600185901b178555610d9d565b5f85815260208120601f198616915b8281101561193c5788860151825594840194600190910190840161191d565b508582101561195957878501515f19600388901b60f8161c191681555b5050505050600190811b01905550565b61ffff81811683821601908082111561077557610775611792565b8082018082111561199757611997611792565b92915050565b61ffff8281168282160390808211156107755761077561179256fea264697066735822122068df0283a820cbaefb4c85e15802cb01d4148dab86ad121a8be0323bbd58804664736f6c63430008140033",
  "linkReferences": {},
  "deployedLinkReferences": {}
}